{"abi":[{"type":"constructor","inputs":[],"stateMutability":"nonpayable"},{"type":"function","name":"CONFIRM_TIMEOUT","inputs":[],"outputs":[{"name":"","type":"uint256","internalType":"uint256"}],"stateMutability":"view"},{"type":"function","name":"SHIPPING_TIMEOUT","inputs":[],"outputs":[{"name":"","type":"uint256","internalType":"uint256"}],"stateMutability":"view"},{"type":"function","name":"arbiter","inputs":[],"outputs":[{"name":"","type":"address","internalType":"address"}],"stateMutability":"view"},{"type":"function","name":"claimTimeoutFunds","inputs":[{"name":"orderId","type":"uint256","internalType":"uint256"}],"outputs":[],"stateMutability":"nonpayable"},{"type":"function","name":"confirmReceipt","inputs":[{"name":"orderId","type":"uint256","internalType":"uint256"}],"outputs":[],"stateMutability":"nonpayable"},{"type":"function","name":"lockFunds","inputs":[{"name":"orderId","type":"uint256","internalType":"uint256"},{"name":"seller","type":"address","internalType":"address"}],"outputs":[],"stateMutability":"payable"},{"type":"function","name":"orders","inputs":[{"name":"","type":"uint256","internalType":"uint256"}],"outputs":[{"name":"buyer","type":"address","internalType":"address"},{"name":"seller","type":"address","internalType":"address"},{"name":"amount","type":"uint256","internalType":"uint256"},{"name":"status","type":"uint8","internalType":"enum MarketplaceEscrow.OrderStatus"},{"name":"lockedAt","type":"uint256","internalType":"uint256"},{"name":"shippedAt","type":"uint256","internalType":"uint256"}],"stateMutability":"view"},{"type":"function","name":"refundShippingTimeout","inputs":[{"name":"orderId","type":"uint256","internalType":"uint256"}],"outputs":[],"stateMutability":"nonpayable"},{"type":"function","name":"resolveDispute","inputs":[{"name":"orderId","type":"uint256","internalType":"uint256"},{"name":"buyerShare","type":"uint256","internalType":"uint256"},{"name":"sellerShare","type":"uint256","internalType":"uint256"}],"outputs":[],"stateMutability":"nonpayable"},{"type":"function","name":"shipOrder","inputs":[{"name":"orderId","type":"uint256","internalType":"uint256"}],"outputs":[],"stateMutability":"nonpayable"},{"type":"event","name":"DisputeRaised","inputs":[{"name":"orderId","type":"uint256","indexed":true,"internalType":"uint256"},{"name":"raisedBy","type":"address","indexed":false,"internalType":"address"}],"anonymous":false},{"type":"event","name":"DisputeResolved","inputs":[{"name":"orderId","type":"uint256","indexed":true,"internalType":"uint256"},{"name":"buyerShare","type":"uint256","indexed":false,"internalType":"uint256"},{"name":"sellerShare","type":"uint256","indexed":false,"internalType":"uint256"}],"anonymous":false},{"type":"event","name":"FundsLocked","inputs":[{"name":"orderId","type":"uint256","indexed":true,"internalType":"uint256"},{"name":"buyer","type":"address","indexed":true,"internalType":"address"},{"name":"seller","type":"address","indexed":true,"internalType":"address"},{"name":"amount","type":"uint256","indexed":false,"internalType":"uint256"}],"anonymous":false},{"type":"event","name":"FundsReleased","inputs":[{"name":"orderId","type":"uint256","indexed":true,"internalType":"uint256"}],"anonymous":false},{"type":"event","name":"OrderCancelledByBuyer","inputs":[{"name":"orderId","type":"uint256","indexed":true,"internalType":"uint256"}],"anonymous":false},{"type":"event","name":"OrderShipped","inputs":[{"name":"orderId","type":"uint256","indexed":true,"internalType":"uint256"}],"anonymous":false}],"bytecode":{"object":"0x6080604052348015600e575f5ffd5b5060015f819055503360015f6101000a81548173ffffffffffffffffffffffffffffffffffffffff021916908373ffffffffffffffffffffffffffffffffffffffff1602179055506121be806100635f395ff3fe608060405260043610610090575f3560e01c8063843cba1311610058578063843cba1314610152578063a85c38ef1461017a578063b89a9bfc146101bb578063d3161813146101e3578063fe25e00a1461020d57610090565b8063194c302c146100945780633fabe74f146100bc5780635b7562ac146100e4578063666fea3d1461010c578063803ae19214610136575b5f5ffd5b34801561009f575f5ffd5b506100ba60048036038101906100b5919061150f565b610237565b005b3480156100c7575f5ffd5b506100e260048036038101906100dd919061153a565b6103b9565b005b3480156100ef575f5ffd5b5061010a6004803603810190610105919061150f565b6107b1565b005b348015610117575f5ffd5b50610120610ab2565b60405161012d9190611599565b60405180910390f35b610150600480360381019061014b919061160c565b610ab9565b005b34801561015d575f5ffd5b506101786004803603810190610173919061150f565b610e3b565b005b348015610185575f5ffd5b506101a0600480360381019061019b919061150f565b611127565b6040516101b2969594939291906116cc565b60405180910390f35b3480156101c6575f5ffd5b506101e160048036038101906101dc919061150f565b6111a9565b005b3480156101ee575f5ffd5b506101f76114ac565b6040516102049190611599565b60405180910390f35b348015610218575f5ffd5b506102216114b3565b60405161022e919061172b565b60405180910390f35b5f60025f8381526020019081526020015f2090506001600581111561025f5761025e611659565b5b816003015f9054906101000a900460ff16600581111561028257610281611659565b5b146102c2576040517f08c379a00000000000000000000000000000000000000000000000000000000081526004016102b99061179e565b60405180910390fd5b806001015f9054906101000a900473ffffffffffffffffffffffffffffffffffffffff1673ffffffffffffffffffffffffffffffffffffffff163373ffffffffffffffffffffffffffffffffffffffff1614610353576040517f08c379a000000000000000000000000000000000000000000000000000000000815260040161034a90611806565b60405180910390fd5b6002816003015f6101000a81548160ff0219169083600581111561037a57610379611659565b5b0217905550428160050181905550817fe3ce5f36666aec295b2ed1a858caf4782066e5e8c1a5a5da7ba6551b14fcfdcb60405160405180910390a25050565b60015f9054906101000a900473ffffffffffffffffffffffffffffffffffffffff1673ffffffffffffffffffffffffffffffffffffffff163373ffffffffffffffffffffffffffffffffffffffff1614610448576040517f08c379a000000000000000000000000000000000000000000000000000000000815260040161043f9061186e565b60405180910390fd5b60025f540361048c576040517f08c379a0000000000000000000000000000000000000000000000000000000008152600401610483906118d6565b60405180910390fd5b60025f819055505f60025f8581526020019081526020015f209050600460058111156104bb576104ba611659565b5b816003015f9054906101000a900460ff1660058111156104de576104dd611659565b5b1461051e576040517f08c379a00000000000000000000000000000000000000000000000000000000081526004016105159061193e565b60405180910390fd5b8060020154828461052f9190611989565b1461056f576040517f08c379a000000000000000000000000000000000000000000000000000000000815260040161056690611a2c565b60405180910390fd5b5f815f015f9054906101000a900473ffffffffffffffffffffffffffffffffffffffff1690505f826001015f9054906101000a900473ffffffffffffffffffffffffffffffffffffffff169050826002015485146105ce5760036105d1565b60055b836003015f6101000a81548160ff021916908360058111156105f6576105f5611659565b5b02179055505f83600201819055505f8511156106b6575f8273ffffffffffffffffffffffffffffffffffffffff168660405161063190611a77565b5f6040518083038185875af1925050503d805f811461066b576040519150601f19603f3d011682016040523d82523d5f602084013e610670565b606091505b50509050806106b4576040517f08c379a00000000000000000000000000000000000000000000000000000000081526004016106ab90611ad5565b60405180910390fd5b505b5f841115610768575f8173ffffffffffffffffffffffffffffffffffffffff16856040516106e390611a77565b5f6040518083038185875af1925050503d805f811461071d576040519150601f19603f3d011682016040523d82523d5f602084013e610722565b606091505b5050905080610766576040517f08c379a000000000000000000000000000000000000000000000000000000000815260040161075d90611b3d565b60405180910390fd5b505b857f959dc01840aa516bf9407cffa45326c7b6821c48feff7b91eb0c743c8f460fd6868660405161079a929190611b5b565b60405180910390a250505060015f81905550505050565b60025f54036107f5576040517f08c379a00000000000000000000000000000000000000000000000000000000081526004016107ec906118d6565b60405180910390fd5b60025f819055505f60025f8381526020019081526020015f2090506001600581111561082457610823611659565b5b816003015f9054906101000a900460ff16600581111561084757610846611659565b5b14610887576040517f08c379a000000000000000000000000000000000000000000000000000000000815260040161087e90611bcc565b60405180910390fd5b805f015f9054906101000a900473ffffffffffffffffffffffffffffffffffffffff1673ffffffffffffffffffffffffffffffffffffffff163373ffffffffffffffffffffffffffffffffffffffff1614610917576040517f08c379a000000000000000000000000000000000000000000000000000000000815260040161090e90611c5a565b60405180910390fd5b6203f480816004015461092a9190611989565b42101561096c576040517f08c379a000000000000000000000000000000000000000000000000000000000815260040161096390611ce8565b60405180910390fd5b5f816002015490505f825f015f9054906101000a900473ffffffffffffffffffffffffffffffffffffffff1690506005836003015f6101000a81548160ff021916908360058111156109c1576109c0611659565b5b02179055505f83600201819055505f8173ffffffffffffffffffffffffffffffffffffffff16836040516109f490611a77565b5f6040518083038185875af1925050503d805f8114610a2e576040519150601f19603f3d011682016040523d82523d5f602084013e610a33565b606091505b5050905080610a77576040517f08c379a0000000000000000000000000000000000000000000000000000000008152600401610a6e90611ad5565b60405180910390fd5b847f59940d3eef2c28f43bd3874220d90bbd9d050f45cca25e65c6d249c82b3c8fb760405160405180910390a25050505060015f8190555050565b6203f48081565b60025f5403610afd576040517f08c379a0000000000000000000000000000000000000000000000000000000008152600401610af4906118d6565b60405180910390fd5b60025f819055505f6005811115610b1757610b16611659565b5b60025f8481526020019081526020015f206003015f9054906101000a900460ff166005811115610b4a57610b49611659565b5b14610b8a576040517f08c379a0000000000000000000000000000000000000000000000000000000008152600401610b8190611d50565b60405180910390fd5b5f3411610bcc576040517f08c379a0000000000000000000000000000000000000000000000000000000008152600401610bc390611db8565b60405180910390fd5b5f73ffffffffffffffffffffffffffffffffffffffff168173ffffffffffffffffffffffffffffffffffffffff1614158015610c3457503373ffffffffffffffffffffffffffffffffffffffff168173ffffffffffffffffffffffffffffffffffffffff1614155b610c73576040517f08c379a0000000000000000000000000000000000000000000000000000000008152600401610c6a90611e20565b60405180910390fd5b6040518060c001604052803373ffffffffffffffffffffffffffffffffffffffff1681526020018273ffffffffffffffffffffffffffffffffffffffff16815260200134815260200160016005811115610cd057610ccf611659565b5b81526020014281526020015f81525060025f8481526020019081526020015f205f820151815f015f6101000a81548173ffffffffffffffffffffffffffffffffffffffff021916908373ffffffffffffffffffffffffffffffffffffffff1602179055506020820151816001015f6101000a81548173ffffffffffffffffffffffffffffffffffffffff021916908373ffffffffffffffffffffffffffffffffffffffff160217905550604082015181600201556060820151816003015f6101000a81548160ff02191690836005811115610dae57610dad611659565b5b02179055506080820151816004015560a082015181600501559050508073ffffffffffffffffffffffffffffffffffffffff163373ffffffffffffffffffffffffffffffffffffffff16837f7095a30abb52211f453208acd965f61d0dee4bb3ba2695453309f77245c95b6d34604051610e289190611599565b60405180910390a460015f819055505050565b60025f5403610e7f576040517f08c379a0000000000000000000000000000000000000000000000000000000008152600401610e76906118d6565b60405180910390fd5b60025f819055505f60025f8381526020019081526020015f20905060026005811115610eae57610ead611659565b5b816003015f9054906101000a900460ff166005811115610ed157610ed0611659565b5b1480610f11575060046005811115610eec57610eeb611659565b5b816003015f9054906101000a900460ff166005811115610f0f57610f0e611659565b5b145b610f50576040517f08c379a0000000000000000000000000000000000000000000000000000000008152600401610f4790611e88565b60405180910390fd5b805f015f9054906101000a900473ffffffffffffffffffffffffffffffffffffffff1673ffffffffffffffffffffffffffffffffffffffff163373ffffffffffffffffffffffffffffffffffffffff1614610fe0576040517f08c379a0000000000000000000000000000000000000000000000000000000008152600401610fd790611ef0565b60405180910390fd5b5f816002015490505f826001015f9054906101000a900473ffffffffffffffffffffffffffffffffffffffff1690506003836003015f6101000a81548160ff0219169083600581111561103657611035611659565b5b02179055505f83600201819055505f8173ffffffffffffffffffffffffffffffffffffffff168360405161106990611a77565b5f6040518083038185875af1925050503d805f81146110a3576040519150601f19603f3d011682016040523d82523d5f602084013e6110a8565b606091505b50509050806110ec576040517f08c379a00000000000000000000000000000000000000000000000000000000081526004016110e390611f58565b60405180910390fd5b847f952b264c8e0a06cddb4bbaa6d6af1d565145329fd95bbe72cb2b53942b2dc96660405160405180910390a25050505060015f8190555050565b6002602052805f5260405f205f91509050805f015f9054906101000a900473ffffffffffffffffffffffffffffffffffffffff1690806001015f9054906101000a900473ffffffffffffffffffffffffffffffffffffffff1690806002015490806003015f9054906101000a900460ff16908060040154908060050154905086565b60025f54036111ed576040517f08c379a00000000000000000000000000000000000000000000000000000000081526004016111e4906118d6565b60405180910390fd5b60025f819055505f60025f8381526020019081526020015f2090506002600581111561121c5761121b611659565b5b816003015f9054906101000a900460ff16600581111561123f5761123e611659565b5b1461127f576040517f08c379a000000000000000000000000000000000000000000000000000000000815260040161127690611fe6565b60405180910390fd5b806001015f9054906101000a900473ffffffffffffffffffffffffffffffffffffffff1673ffffffffffffffffffffffffffffffffffffffff163373ffffffffffffffffffffffffffffffffffffffff1614611310576040517f08c379a000000000000000000000000000000000000000000000000000000000815260040161130790612074565b60405180910390fd5b62093a8081600501546113239190611989565b421015611365576040517f08c379a000000000000000000000000000000000000000000000000000000000815260040161135c90612102565b60405180910390fd5b5f816002015490505f826001015f9054906101000a900473ffffffffffffffffffffffffffffffffffffffff1690506003836003015f6101000a81548160ff021916908360058111156113bb576113ba611659565b5b02179055505f83600201819055505f8173ffffffffffffffffffffffffffffffffffffffff16836040516113ee90611a77565b5f6040518083038185875af1925050503d805f8114611428576040519150601f19603f3d011682016040523d82523d5f602084013e61142d565b606091505b5050905080611471576040517f08c379a00000000000000000000000000000000000000000000000000000000081526004016114689061216a565b60405180910390fd5b847f952b264c8e0a06cddb4bbaa6d6af1d565145329fd95bbe72cb2b53942b2dc96660405160405180910390a25050505060015f8190555050565b62093a8081565b60015f9054906101000a900473ffffffffffffffffffffffffffffffffffffffff1681565b5f5ffd5b5f819050919050565b6114ee816114dc565b81146114f8575f5ffd5b50565b5f81359050611509816114e5565b92915050565b5f60208284031215611524576115236114d8565b5b5f611531848285016114fb565b91505092915050565b5f5f5f60608486031215611551576115506114d8565b5b5f61155e868287016114fb565b935050602061156f868287016114fb565b9250506040611580868287016114fb565b9150509250925092565b611593816114dc565b82525050565b5f6020820190506115ac5f83018461158a565b92915050565b5f73ffffffffffffffffffffffffffffffffffffffff82169050919050565b5f6115db826115b2565b9050919050565b6115eb816115d1565b81146115f5575f5ffd5b50565b5f81359050611606816115e2565b92915050565b5f5f60408385031215611622576116216114d8565b5b5f61162f858286016114fb565b9250506020611640858286016115f8565b9150509250929050565b611653816115d1565b82525050565b7f4e487b71000000000000000000000000000000000000000000000000000000005f52602160045260245ffd5b6006811061169757611696611659565b5b50565b5f8190506116a782611686565b919050565b5f6116b68261169a565b9050919050565b6116c6816116ac565b82525050565b5f60c0820190506116df5f83018961164a565b6116ec602083018861164a565b6116f9604083018761158a565b61170660608301866116bd565b611713608083018561158a565b61172060a083018461158a565b979650505050505050565b5f60208201905061173e5f83018461164a565b92915050565b5f82825260208201905092915050565b7f496e76616c6964206f72646572207374617475730000000000000000000000005f82015250565b5f611788601483611744565b915061179382611754565b602082019050919050565b5f6020820190508181035f8301526117b58161177c565b9050919050565b7f4f6e6c792073656c6c65722063616e20736869700000000000000000000000005f82015250565b5f6117f0601483611744565b91506117fb826117bc565b602082019050919050565b5f6020820190508181035f83015261181d816117e4565b9050919050565b7f4f6e6c7920617262697465722063616e2063616c6c20746869730000000000005f82015250565b5f611858601a83611744565b915061186382611824565b602082019050919050565b5f6020820190508181035f8301526118858161184c565b9050919050565b7f5265656e7472616e637947756172643a207265656e7472616e742063616c6c005f82015250565b5f6118c0601f83611744565b91506118cb8261188c565b602082019050919050565b5f6020820190508181035f8301526118ed816118b4565b9050919050565b7f4f72646572206973206e6f7420696e20646973707574650000000000000000005f82015250565b5f611928601783611744565b9150611933826118f4565b602082019050919050565b5f6020820190508181035f8301526119558161191c565b9050919050565b7f4e487b71000000000000000000000000000000000000000000000000000000005f52601160045260245ffd5b5f611993826114dc565b915061199e836114dc565b92508282019050808211156119b6576119b561195c565b5b92915050565b7f53756d206d757374206d6174636820746f74616c206c6f636b656420616d6f755f8201527f6e74000000000000000000000000000000000000000000000000000000000000602082015250565b5f611a16602283611744565b9150611a21826119bc565b604082019050919050565b5f6020820190508181035f830152611a4381611a0a565b9050919050565b5f81905092915050565b50565b5f611a625f83611a4a565b9150611a6d82611a54565b5f82019050919050565b5f611a8182611a57565b9150819050919050565b7f526566756e6420746f206275796572206661696c6564000000000000000000005f82015250565b5f611abf601683611744565b9150611aca82611a8b565b602082019050919050565b5f6020820190508181035f830152611aec81611ab3565b9050919050565b7f5061796f757420746f2073656c6c6572206661696c65640000000000000000005f82015250565b5f611b27601783611744565b9150611b3282611af3565b602082019050919050565b5f6020820190508181035f830152611b5481611b1b565b9050919050565b5f604082019050611b6e5f83018561158a565b611b7b602083018461158a565b9392505050565b7f4f7264657220737461747573206d757374206265204c6f636b656400000000005f82015250565b5f611bb6601b83611744565b9150611bc182611b82565b602082019050919050565b5f6020820190508181035f830152611be381611baa565b9050919050565b7f4f6e6c792062757965722063616e2063616e63656c20756e2d736869707065645f8201527f206f726465720000000000000000000000000000000000000000000000000000602082015250565b5f611c44602683611744565b9150611c4f82611bea565b604082019050919050565b5f6020820190508181035f830152611c7181611c38565b9050919050565b7f5368697070696e672074696d656f757420686173206e6f7420706173736564205f8201527f7965740000000000000000000000000000000000000000000000000000000000602082015250565b5f611cd2602383611744565b9150611cdd82611c78565b604082019050919050565b5f6020820190508181035f830152611cff81611cc6565b9050919050565b7f4f7264657220616c7265616479206578697374730000000000000000000000005f82015250565b5f611d3a601483611744565b9150611d4582611d06565b602082019050919050565b5f6020820190508181035f830152611d6781611d2e565b9050919050565b7f4d7573742073656e642063727970746f20746f206c6f636b00000000000000005f82015250565b5f611da2601883611744565b9150611dad82611d6e565b602082019050919050565b5f6020820190508181035f830152611dcf81611d96565b9050919050565b7f496e76616c69642073656c6c65722061646472657373000000000000000000005f82015250565b5f611e0a601683611744565b9150611e1582611dd6565b602082019050919050565b5f6020820190508181035f830152611e3781611dfe565b9050919050565b7f496e76616c6964207374617475730000000000000000000000000000000000005f82015250565b5f611e72600e83611744565b9150611e7d82611e3e565b602082019050919050565b5f6020820190508181035f830152611e9f81611e66565b9050919050565b7f4f6e6c792062757965722063616e20636f6e6669726d207265636569707400005f82015250565b5f611eda601e83611744565b9150611ee582611ea6565b602082019050919050565b5f6020820190508181035f830152611f0781611ece565b9050919050565b7f5472616e7366657220746f2073656c6c6572206661696c6564000000000000005f82015250565b5f611f42601983611744565b9150611f4d82611f0e565b602082019050919050565b5f6020820190508181035f830152611f6f81611f36565b9050919050565b7f4f72646572206e6f742073686970706564206f7220616c726561647920636c6f5f8201527f7365640000000000000000000000000000000000000000000000000000000000602082015250565b5f611fd0602383611744565b9150611fdb82611f76565b604082019050919050565b5f6020820190508181035f830152611ffd81611fc4565b9050919050565b7f4f6e6c792073656c6c65722063616e20636c61696d2074696d656f75742066755f8201527f6e64730000000000000000000000000000000000000000000000000000000000602082015250565b5f61205e602383611744565b915061206982612004565b604082019050919050565b5f6020820190508181035f83015261208b81612052565b9050919050565b7f436f6e6669726d2074696d656f757420686173206e6f742070617373656420795f8201527f6574000000000000000000000000000000000000000000000000000000000000602082015250565b5f6120ec602283611744565b91506120f782612092565b604082019050919050565b5f6020820190508181035f830152612119816120e0565b9050919050565b7f54696d656f7574207472616e73666572206661696c65640000000000000000005f82015250565b5f612154601783611744565b915061215f82612120565b602082019050919050565b5f6020820190508181035f83015261218181612148565b905091905056fea264697066735822122068fdd8cab1996d235b3146aed86a82eaa5dfdd839fec6a653f6bfdd89eab143464736f6c634300081e0033","linkReferences":{}},"methodIdentifiers":{"CONFIRM_TIMEOUT()":"d3161813","SHIPPING_TIMEOUT()":"666fea3d","arbiter()":"fe25e00a","claimTimeoutFunds(uint256)":"b89a9bfc","confirmReceipt(uint256)":"843cba13","lockFunds(uint256,address)":"803ae192","orders(uint256)":"a85c38ef","refundShippingTimeout(uint256)":"5b7562ac","resolveDispute(uint256,uint256,uint256)":"3fabe74f","shipOrder(uint256)":"194c302c"},"id":0}