{"abi":[{"type":"constructor","inputs":[{"name":"initialArbiter","type":"address","internalType":"address"}],"stateMutability":"nonpayable"},{"type":"function","name":"CONFIRM_TIMEOUT","inputs":[],"outputs":[{"name":"","type":"uint256","internalType":"uint256"}],"stateMutability":"view"},{"type":"function","name":"SHIPPING_TIMEOUT","inputs":[],"outputs":[{"name":"","type":"uint256","internalType":"uint256"}],"stateMutability":"view"},{"type":"function","name":"arbiter","inputs":[],"outputs":[{"name":"","type":"address","internalType":"address"}],"stateMutability":"view"},{"type":"function","name":"claimTimeoutFunds","inputs":[{"name":"orderId","type":"uint256","internalType":"uint256"}],"outputs":[],"stateMutability":"nonpayable"},{"type":"function","name":"confirmReceipt","inputs":[{"name":"orderId","type":"uint256","internalType":"uint256"}],"outputs":[],"stateMutability":"nonpayable"},{"type":"function","name":"lockFunds","inputs":[{"name":"orderId","type":"uint256","internalType":"uint256"},{"name":"seller","type":"address","internalType":"address"}],"outputs":[],"stateMutability":"payable"},{"type":"function","name":"orders","inputs":[{"name":"","type":"uint256","internalType":"uint256"}],"outputs":[{"name":"buyer","type":"address","internalType":"address"},{"name":"seller","type":"address","internalType":"address"},{"name":"amount","type":"uint256","internalType":"uint256"},{"name":"status","type":"uint8","internalType":"enum MarketplaceEscrow.OrderStatus"},{"name":"lockedAt","type":"uint256","internalType":"uint256"},{"name":"shippedAt","type":"uint256","internalType":"uint256"}],"stateMutability":"view"},{"type":"function","name":"raiseDispute","inputs":[{"name":"orderId","type":"uint256","internalType":"uint256"}],"outputs":[],"stateMutability":"nonpayable"},{"type":"function","name":"refundShippingTimeout","inputs":[{"name":"orderId","type":"uint256","internalType":"uint256"}],"outputs":[],"stateMutability":"nonpayable"},{"type":"function","name":"resolveDispute","inputs":[{"name":"orderId","type":"uint256","internalType":"uint256"},{"name":"buyerShare","type":"uint256","internalType":"uint256"},{"name":"sellerShare","type":"uint256","internalType":"uint256"}],"outputs":[],"stateMutability":"nonpayable"},{"type":"function","name":"shipOrder","inputs":[{"name":"orderId","type":"uint256","internalType":"uint256"}],"outputs":[],"stateMutability":"nonpayable"},{"type":"function","name":"transferArbiter","inputs":[{"name":"newArbiter","type":"address","internalType":"address"}],"outputs":[],"stateMutability":"nonpayable"},{"type":"event","name":"ArbiterChanged","inputs":[{"name":"oldArbiter","type":"address","indexed":true,"internalType":"address"},{"name":"newArbiter","type":"address","indexed":true,"internalType":"address"}],"anonymous":false},{"type":"event","name":"DisputeRaised","inputs":[{"name":"orderId","type":"uint256","indexed":true,"internalType":"uint256"},{"name":"raisedBy","type":"address","indexed":false,"internalType":"address"}],"anonymous":false},{"type":"event","name":"DisputeResolved","inputs":[{"name":"orderId","type":"uint256","indexed":true,"internalType":"uint256"},{"name":"buyerShare","type":"uint256","indexed":false,"internalType":"uint256"},{"name":"sellerShare","type":"uint256","indexed":false,"internalType":"uint256"}],"anonymous":false},{"type":"event","name":"FundsLocked","inputs":[{"name":"orderId","type":"uint256","indexed":true,"internalType":"uint256"},{"name":"buyer","type":"address","indexed":true,"internalType":"address"},{"name":"seller","type":"address","indexed":true,"internalType":"address"},{"name":"amount","type":"uint256","indexed":false,"internalType":"uint256"}],"anonymous":false},{"type":"event","name":"FundsReleased","inputs":[{"name":"orderId","type":"uint256","indexed":true,"internalType":"uint256"}],"anonymous":false},{"type":"event","name":"OrderCancelledByBuyer","inputs":[{"name":"orderId","type":"uint256","indexed":true,"internalType":"uint256"}],"anonymous":false},{"type":"event","name":"OrderShipped","inputs":[{"name":"orderId","type":"uint256","indexed":true,"internalType":"uint256"}],"anonymous":false}],"bytecode":{"object":"0x608060405234801561000f575f5ffd5b5060405161293f38038061293f833981810160405281019061003191906101a4565b60015f819055505f73ffffffffffffffffffffffffffffffffffffffff168173ffffffffffffffffffffffffffffffffffffffff16036100a6576040517f08c379a000000000000000000000000000000000000000000000000000000000815260040161009d90610229565b60405180910390fd5b8060015f6101000a81548173ffffffffffffffffffffffffffffffffffffffff021916908373ffffffffffffffffffffffffffffffffffffffff1602179055508073ffffffffffffffffffffffffffffffffffffffff165f73ffffffffffffffffffffffffffffffffffffffff167f8baeb8e9be10c233f000f8215f52a1038a77bc736883d06f9022545ef1ab1a7460405160405180910390a350610247565b5f5ffd5b5f73ffffffffffffffffffffffffffffffffffffffff82169050919050565b5f6101738261014a565b9050919050565b61018381610169565b811461018d575f5ffd5b50565b5f8151905061019e8161017a565b92915050565b5f602082840312156101b9576101b8610146565b5b5f6101c684828501610190565b91505092915050565b5f82825260208201905092915050565b7f496e76616c6964206172626974657200000000000000000000000000000000005f82015250565b5f610213600f836101cf565b915061021e826101df565b602082019050919050565b5f6020820190508181035f83015261024081610207565b9050919050565b6126eb806102545f395ff3fe6080604052600436106100a6575f3560e01c806385687423116100635780638568742314610190578063a5c1674e146101b8578063a85c38ef146101e0578063b89a9bfc14610221578063d316181314610249578063fe25e00a14610273576100a6565b8063194c302c146100aa5780633fabe74f146100d25780635b7562ac146100fa578063666fea3d14610122578063803ae1921461014c578063843cba1314610168575b5f5ffd5b3480156100b5575f5ffd5b506100d060048036038101906100cb91906118b3565b61029d565b005b3480156100dd575f5ffd5b506100f860048036038101906100f391906118de565b61041f565b005b348015610105575f5ffd5b50610120600480360381019061011b91906118b3565b610817565b005b34801561012d575f5ffd5b50610136610b18565b604051610143919061193d565b60405180910390f35b610166600480360381019061016191906119b0565b610b1f565b005b348015610173575f5ffd5b5061018e600480360381019061018991906118b3565b610ea1565b005b34801561019b575f5ffd5b506101b660048036038101906101b191906119ee565b61118d565b005b3480156101c3575f5ffd5b506101de60048036038101906101d991906118b3565b611348565b005b3480156101eb575f5ffd5b50610206600480360381019061020191906118b3565b6114cb565b60405161021896959493929190611a9b565b60405180910390f35b34801561022c575f5ffd5b50610247600480360381019061024291906118b3565b61154d565b005b348015610254575f5ffd5b5061025d611850565b60405161026a919061193d565b60405180910390f35b34801561027e575f5ffd5b50610287611857565b6040516102949190611afa565b60405180910390f35b5f60025f8381526020019081526020015f209050600160058111156102c5576102c4611a28565b5b816003015f9054906101000a900460ff1660058111156102e8576102e7611a28565b5b14610328576040517f08c379a000000000000000000000000000000000000000000000000000000000815260040161031f90611b6d565b60405180910390fd5b806001015f9054906101000a900473ffffffffffffffffffffffffffffffffffffffff1673ffffffffffffffffffffffffffffffffffffffff163373ffffffffffffffffffffffffffffffffffffffff16146103b9576040517f08c379a00000000000000000000000000000000000000000000000000000000081526004016103b090611bd5565b60405180910390fd5b6002816003015f6101000a81548160ff021916908360058111156103e0576103df611a28565b5b0217905550428160050181905550817fe3ce5f36666aec295b2ed1a858caf4782066e5e8c1a5a5da7ba6551b14fcfdcb60405160405180910390a25050565b60015f9054906101000a900473ffffffffffffffffffffffffffffffffffffffff1673ffffffffffffffffffffffffffffffffffffffff163373ffffffffffffffffffffffffffffffffffffffff16146104ae576040517f08c379a00000000000000000000000000000000000000000000000000000000081526004016104a590611c3d565b60405180910390fd5b60025f54036104f2576040517f08c379a00000000000000000000000000000000000000000000000000000000081526004016104e990611ca5565b60405180910390fd5b60025f819055505f60025f8581526020019081526020015f2090506004600581111561052157610520611a28565b5b816003015f9054906101000a900460ff16600581111561054457610543611a28565b5b14610584576040517f08c379a000000000000000000000000000000000000000000000000000000000815260040161057b90611d0d565b60405180910390fd5b806002015482846105959190611d58565b146105d5576040517f08c379a00000000000000000000000000000000000000000000000000000000081526004016105cc90611dfb565b60405180910390fd5b5f815f015f9054906101000a900473ffffffffffffffffffffffffffffffffffffffff1690505f826001015f9054906101000a900473ffffffffffffffffffffffffffffffffffffffff16905082600201548514610634576003610637565b60055b836003015f6101000a81548160ff0219169083600581111561065c5761065b611a28565b5b02179055505f83600201819055505f85111561071c575f8273ffffffffffffffffffffffffffffffffffffffff168660405161069790611e46565b5f6040518083038185875af1925050503d805f81146106d1576040519150601f19603f3d011682016040523d82523d5f602084013e6106d6565b606091505b505090508061071a576040517f08c379a000000000000000000000000000000000000000000000000000000000815260040161071190611ea4565b60405180910390fd5b505b5f8411156107ce575f8173ffffffffffffffffffffffffffffffffffffffff168560405161074990611e46565b5f6040518083038185875af1925050503d805f8114610783576040519150601f19603f3d011682016040523d82523d5f602084013e610788565b606091505b50509050806107cc576040517f08c379a00000000000000000000000000000000000000000000000000000000081526004016107c390611f0c565b60405180910390fd5b505b857f959dc01840aa516bf9407cffa45326c7b6821c48feff7b91eb0c743c8f460fd68686604051610800929190611f2a565b60405180910390a250505060015f81905550505050565b60025f540361085b576040517f08c379a000000000000000000000000000000000000000000000000000000000815260040161085290611ca5565b60405180910390fd5b60025f819055505f60025f8381526020019081526020015f2090506001600581111561088a57610889611a28565b5b816003015f9054906101000a900460ff1660058111156108ad576108ac611a28565b5b146108ed576040517f08c379a00000000000000000000000000000000000000000000000000000000081526004016108e490611f9b565b60405180910390fd5b805f015f9054906101000a900473ffffffffffffffffffffffffffffffffffffffff1673ffffffffffffffffffffffffffffffffffffffff163373ffffffffffffffffffffffffffffffffffffffff161461097d576040517f08c379a000000000000000000000000000000000000000000000000000000000815260040161097490612029565b60405180910390fd5b6203f48081600401546109909190611d58565b4210156109d2576040517f08c379a00000000000000000000000000000000000000000000000000000000081526004016109c9906120b7565b60405180910390fd5b5f816002015490505f825f015f9054906101000a900473ffffffffffffffffffffffffffffffffffffffff1690506005836003015f6101000a81548160ff02191690836005811115610a2757610a26611a28565b5b02179055505f83600201819055505f8173ffffffffffffffffffffffffffffffffffffffff1683604051610a5a90611e46565b5f6040518083038185875af1925050503d805f8114610a94576040519150601f19603f3d011682016040523d82523d5f602084013e610a99565b606091505b5050905080610add576040517f08c379a0000000000000000000000000000000000000000000000000000000008152600401610ad490611ea4565b60405180910390fd5b847f59940d3eef2c28f43bd3874220d90bbd9d050f45cca25e65c6d249c82b3c8fb760405160405180910390a25050505060015f8190555050565b6203f48081565b60025f5403610b63576040517f08c379a0000000000000000000000000000000000000000000000000000000008152600401610b5a90611ca5565b60405180910390fd5b60025f819055505f6005811115610b7d57610b7c611a28565b5b60025f8481526020019081526020015f206003015f9054906101000a900460ff166005811115610bb057610baf611a28565b5b14610bf0576040517f08c379a0000000000000000000000000000000000000000000000000000000008152600401610be79061211f565b60405180910390fd5b5f3411610c32576040517f08c379a0000000000000000000000000000000000000000000000000000000008152600401610c2990612187565b60405180910390fd5b5f73ffffffffffffffffffffffffffffffffffffffff168173ffffffffffffffffffffffffffffffffffffffff1614158015610c9a57503373ffffffffffffffffffffffffffffffffffffffff168173ffffffffffffffffffffffffffffffffffffffff1614155b610cd9576040517f08c379a0000000000000000000000000000000000000000000000000000000008152600401610cd0906121ef565b60405180910390fd5b6040518060c001604052803373ffffffffffffffffffffffffffffffffffffffff1681526020018273ffffffffffffffffffffffffffffffffffffffff16815260200134815260200160016005811115610d3657610d35611a28565b5b81526020014281526020015f81525060025f8481526020019081526020015f205f820151815f015f6101000a81548173ffffffffffffffffffffffffffffffffffffffff021916908373ffffffffffffffffffffffffffffffffffffffff1602179055506020820151816001015f6101000a81548173ffffffffffffffffffffffffffffffffffffffff021916908373ffffffffffffffffffffffffffffffffffffffff160217905550604082015181600201556060820151816003015f6101000a81548160ff02191690836005811115610e1457610e13611a28565b5b02179055506080820151816004015560a082015181600501559050508073ffffffffffffffffffffffffffffffffffffffff163373ffffffffffffffffffffffffffffffffffffffff16837f7095a30abb52211f453208acd965f61d0dee4bb3ba2695453309f77245c95b6d34604051610e8e919061193d565b60405180910390a460015f819055505050565b60025f5403610ee5576040517f08c379a0000000000000000000000000000000000000000000000000000000008152600401610edc90611ca5565b60405180910390fd5b60025f819055505f60025f8381526020019081526020015f20905060026005811115610f1457610f13611a28565b5b816003015f9054906101000a900460ff166005811115610f3757610f36611a28565b5b1480610f77575060046005811115610f5257610f51611a28565b5b816003015f9054906101000a900460ff166005811115610f7557610f74611a28565b5b145b610fb6576040517f08c379a0000000000000000000000000000000000000000000000000000000008152600401610fad90612257565b60405180910390fd5b805f015f9054906101000a900473ffffffffffffffffffffffffffffffffffffffff1673ffffffffffffffffffffffffffffffffffffffff163373ffffffffffffffffffffffffffffffffffffffff1614611046576040517f08c379a000000000000000000000000000000000000000000000000000000000815260040161103d906122bf565b60405180910390fd5b5f816002015490505f826001015f9054906101000a900473ffffffffffffffffffffffffffffffffffffffff1690506003836003015f6101000a81548160ff0219169083600581111561109c5761109b611a28565b5b02179055505f83600201819055505f8173ffffffffffffffffffffffffffffffffffffffff16836040516110cf90611e46565b5f6040518083038185875af1925050503d805f8114611109576040519150601f19603f3d011682016040523d82523d5f602084013e61110e565b606091505b5050905080611152576040517f08c379a000000000000000000000000000000000000000000000000000000000815260040161114990612327565b60405180910390fd5b847f952b264c8e0a06cddb4bbaa6d6af1d565145329fd95bbe72cb2b53942b2dc96660405160405180910390a25050505060015f8190555050565b60015f9054906101000a900473ffffffffffffffffffffffffffffffffffffffff1673ffffffffffffffffffffffffffffffffffffffff163373ffffffffffffffffffffffffffffffffffffffff161461121c576040517f08c379a000000000000000000000000000000000000000000000000000000000815260040161121390611c3d565b60405180910390fd5b5f73ffffffffffffffffffffffffffffffffffffffff168173ffffffffffffffffffffffffffffffffffffffff160361128a576040517f08c379a00000000000000000000000000000000000000000000000000000000081526004016112819061238f565b60405180910390fd5b8073ffffffffffffffffffffffffffffffffffffffff1660015f9054906101000a900473ffffffffffffffffffffffffffffffffffffffff1673ffffffffffffffffffffffffffffffffffffffff167f8baeb8e9be10c233f000f8215f52a1038a77bc736883d06f9022545ef1ab1a7460405160405180910390a38060015f6101000a81548173ffffffffffffffffffffffffffffffffffffffff021916908373ffffffffffffffffffffffffffffffffffffffff16021790555050565b5f60025f8381526020019081526020015f209050600260058111156113705761136f611a28565b5b816003015f9054906101000a900460ff16600581111561139357611392611a28565b5b146113d3576040517f08c379a00000000000000000000000000000000000000000000000000000000081526004016113ca9061241d565b60405180910390fd5b805f015f9054906101000a900473ffffffffffffffffffffffffffffffffffffffff1673ffffffffffffffffffffffffffffffffffffffff163373ffffffffffffffffffffffffffffffffffffffff1614611463576040517f08c379a000000000000000000000000000000000000000000000000000000000815260040161145a90612485565b60405180910390fd5b6004816003015f6101000a81548160ff0219169083600581111561148a57611489611a28565b5b0217905550817f84a477df8a28a4276ca6dee4458a06c3015f30c477d9c949ede4e13ff8a552b4336040516114bf9190611afa565b60405180910390a25050565b6002602052805f5260405f205f91509050805f015f9054906101000a900473ffffffffffffffffffffffffffffffffffffffff1690806001015f9054906101000a900473ffffffffffffffffffffffffffffffffffffffff1690806002015490806003015f9054906101000a900460ff16908060040154908060050154905086565b60025f5403611591576040517f08c379a000000000000000000000000000000000000000000000000000000000815260040161158890611ca5565b60405180910390fd5b60025f819055505f60025f8381526020019081526020015f209050600260058111156115c0576115bf611a28565b5b816003015f9054906101000a900460ff1660058111156115e3576115e2611a28565b5b14611623576040517f08c379a000000000000000000000000000000000000000000000000000000000815260040161161a90612513565b60405180910390fd5b806001015f9054906101000a900473ffffffffffffffffffffffffffffffffffffffff1673ffffffffffffffffffffffffffffffffffffffff163373ffffffffffffffffffffffffffffffffffffffff16146116b4576040517f08c379a00000000000000000000000000000000000000000000000000000000081526004016116ab906125a1565b60405180910390fd5b62093a8081600501546116c79190611d58565b421015611709576040517f08c379a00000000000000000000000000000000000000000000000000000000081526004016117009061262f565b60405180910390fd5b5f816002015490505f826001015f9054906101000a900473ffffffffffffffffffffffffffffffffffffffff1690506003836003015f6101000a81548160ff0219169083600581111561175f5761175e611a28565b5b02179055505f83600201819055505f8173ffffffffffffffffffffffffffffffffffffffff168360405161179290611e46565b5f6040518083038185875af1925050503d805f81146117cc576040519150601f19603f3d011682016040523d82523d5f602084013e6117d1565b606091505b5050905080611815576040517f08c379a000000000000000000000000000000000000000000000000000000000815260040161180c90612697565b60405180910390fd5b847f952b264c8e0a06cddb4bbaa6d6af1d565145329fd95bbe72cb2b53942b2dc96660405160405180910390a25050505060015f8190555050565b62093a8081565b60015f9054906101000a900473ffffffffffffffffffffffffffffffffffffffff1681565b5f5ffd5b5f819050919050565b61189281611880565b811461189c575f5ffd5b50565b5f813590506118ad81611889565b92915050565b5f602082840312156118c8576118c761187c565b5b5f6118d58482850161189f565b91505092915050565b5f5f5f606084860312156118f5576118f461187c565b5b5f6119028682870161189f565b93505060206119138682870161189f565b92505060406119248682870161189f565b9150509250925092565b61193781611880565b82525050565b5f6020820190506119505f83018461192e565b92915050565b5f73ffffffffffffffffffffffffffffffffffffffff82169050919050565b5f61197f82611956565b9050919050565b61198f81611975565b8114611999575f5ffd5b50565b5f813590506119aa81611986565b92915050565b5f5f604083850312156119c6576119c561187c565b5b5f6119d38582860161189f565b92505060206119e48582860161199c565b9150509250929050565b5f60208284031215611a0357611a0261187c565b5b5f611a108482850161199c565b91505092915050565b611a2281611975565b82525050565b7f4e487b71000000000000000000000000000000000000000000000000000000005f52602160045260245ffd5b60068110611a6657611a65611a28565b5b50565b5f819050611a7682611a55565b919050565b5f611a8582611a69565b9050919050565b611a9581611a7b565b82525050565b5f60c082019050611aae5f830189611a19565b611abb6020830188611a19565b611ac8604083018761192e565b611ad56060830186611a8c565b611ae2608083018561192e565b611aef60a083018461192e565b979650505050505050565b5f602082019050611b0d5f830184611a19565b92915050565b5f82825260208201905092915050565b7f496e76616c6964206f72646572207374617475730000000000000000000000005f82015250565b5f611b57601483611b13565b9150611b6282611b23565b602082019050919050565b5f6020820190508181035f830152611b8481611b4b565b9050919050565b7f4f6e6c792073656c6c65722063616e20736869700000000000000000000000005f82015250565b5f611bbf601483611b13565b9150611bca82611b8b565b602082019050919050565b5f6020820190508181035f830152611bec81611bb3565b9050919050565b7f4f6e6c7920617262697465722063616e2063616c6c20746869730000000000005f82015250565b5f611c27601a83611b13565b9150611c3282611bf3565b602082019050919050565b5f6020820190508181035f830152611c5481611c1b565b9050919050565b7f5265656e7472616e637947756172643a207265656e7472616e742063616c6c005f82015250565b5f611c8f601f83611b13565b9150611c9a82611c5b565b602082019050919050565b5f6020820190508181035f830152611cbc81611c83565b9050919050565b7f4f72646572206973206e6f7420696e20646973707574650000000000000000005f82015250565b5f611cf7601783611b13565b9150611d0282611cc3565b602082019050919050565b5f6020820190508181035f830152611d2481611ceb565b9050919050565b7f4e487b71000000000000000000000000000000000000000000000000000000005f52601160045260245ffd5b5f611d6282611880565b9150611d6d83611880565b9250828201905080821115611d8557611d84611d2b565b5b92915050565b7f53756d206d757374206d6174636820746f74616c206c6f636b656420616d6f755f8201527f6e74000000000000000000000000000000000000000000000000000000000000602082015250565b5f611de5602283611b13565b9150611df082611d8b565b604082019050919050565b5f6020820190508181035f830152611e1281611dd9565b9050919050565b5f81905092915050565b50565b5f611e315f83611e19565b9150611e3c82611e23565b5f82019050919050565b5f611e5082611e26565b9150819050919050565b7f526566756e6420746f206275796572206661696c6564000000000000000000005f82015250565b5f611e8e601683611b13565b9150611e9982611e5a565b602082019050919050565b5f6020820190508181035f830152611ebb81611e82565b9050919050565b7f5061796f757420746f2073656c6c6572206661696c65640000000000000000005f82015250565b5f611ef6601783611b13565b9150611f0182611ec2565b602082019050919050565b5f6020820190508181035f830152611f2381611eea565b9050919050565b5f604082019050611f3d5f83018561192e565b611f4a602083018461192e565b9392505050565b7f4f7264657220737461747573206d757374206265204c6f636b656400000000005f82015250565b5f611f85601b83611b13565b9150611f9082611f51565b602082019050919050565b5f6020820190508181035f830152611fb281611f79565b9050919050565b7f4f6e6c792062757965722063616e2063616e63656c20756e2d736869707065645f8201527f206f726465720000000000000000000000000000000000000000000000000000602082015250565b5f612013602683611b13565b915061201e82611fb9565b604082019050919050565b5f6020820190508181035f83015261204081612007565b9050919050565b7f5368697070696e672074696d656f757420686173206e6f7420706173736564205f8201527f7965740000000000000000000000000000000000000000000000000000000000602082015250565b5f6120a1602383611b13565b91506120ac82612047565b604082019050919050565b5f6020820190508181035f8301526120ce81612095565b9050919050565b7f4f7264657220616c7265616479206578697374730000000000000000000000005f82015250565b5f612109601483611b13565b9150612114826120d5565b602082019050919050565b5f6020820190508181035f830152612136816120fd565b9050919050565b7f4d7573742073656e642063727970746f20746f206c6f636b00000000000000005f82015250565b5f612171601883611b13565b915061217c8261213d565b602082019050919050565b5f6020820190508181035f83015261219e81612165565b9050919050565b7f496e76616c69642073656c6c65722061646472657373000000000000000000005f82015250565b5f6121d9601683611b13565b91506121e4826121a5565b602082019050919050565b5f6020820190508181035f830152612206816121cd565b9050919050565b7f496e76616c6964207374617475730000000000000000000000000000000000005f82015250565b5f612241600e83611b13565b915061224c8261220d565b602082019050919050565b5f6020820190508181035f83015261226e81612235565b9050919050565b7f4f6e6c792062757965722063616e20636f6e6669726d207265636569707400005f82015250565b5f6122a9601e83611b13565b91506122b482612275565b602082019050919050565b5f6020820190508181035f8301526122d68161229d565b9050919050565b7f5472616e7366657220746f2073656c6c6572206661696c6564000000000000005f82015250565b5f612311601983611b13565b915061231c826122dd565b602082019050919050565b5f6020820190508181035f83015261233e81612305565b9050919050565b7f496e76616c6964206172626974657200000000000000000000000000000000005f82015250565b5f612379600f83611b13565b915061238482612345565b602082019050919050565b5f6020820190508181035f8301526123a68161236d565b9050919050565b7f4f6e6c792073686970706564206f72646572732063616e2062652064697370755f8201527f7465640000000000000000000000000000000000000000000000000000000000602082015250565b5f612407602383611b13565b9150612412826123ad565b604082019050919050565b5f6020820190508181035f830152612434816123fb565b9050919050565b7f4f6e6c792062757965722063616e2072616973652064697370757465000000005f82015250565b5f61246f601c83611b13565b915061247a8261243b565b602082019050919050565b5f6020820190508181035f83015261249c81612463565b9050919050565b7f4f72646572206e6f742073686970706564206f7220616c726561647920636c6f5f8201527f7365640000000000000000000000000000000000000000000000000000000000602082015250565b5f6124fd602383611b13565b9150612508826124a3565b604082019050919050565b5f6020820190508181035f83015261252a816124f1565b9050919050565b7f4f6e6c792073656c6c65722063616e20636c61696d2074696d656f75742066755f8201527f6e64730000000000000000000000000000000000000000000000000000000000602082015250565b5f61258b602383611b13565b915061259682612531565b604082019050919050565b5f6020820190508181035f8301526125b88161257f565b9050919050565b7f436f6e6669726d2074696d656f757420686173206e6f742070617373656420795f8201527f6574000000000000000000000000000000000000000000000000000000000000602082015250565b5f612619602283611b13565b9150612624826125bf565b604082019050919050565b5f6020820190508181035f8301526126468161260d565b9050919050565b7f54696d656f7574207472616e73666572206661696c65640000000000000000005f82015250565b5f612681601783611b13565b915061268c8261264d565b602082019050919050565b5f6020820190508181035f8301526126ae81612675565b905091905056fea2646970667358221220d28e8865e5829ca014aa171c445fde7958b439d6544b6aa7bba42f27e0123b0d64736f6c63430008230033","linkReferences":{}},"methodIdentifiers":{"CONFIRM_TIMEOUT()":"d3161813","SHIPPING_TIMEOUT()":"666fea3d","arbiter()":"fe25e00a","claimTimeoutFunds(uint256)":"b89a9bfc","confirmReceipt(uint256)":"843cba13","lockFunds(uint256,address)":"803ae192","orders(uint256)":"a85c38ef","raiseDispute(uint256)":"a5c1674e","refundShippingTimeout(uint256)":"5b7562ac","resolveDispute(uint256,uint256,uint256)":"3fabe74f","shipOrder(uint256)":"194c302c","transferArbiter(address)":"85687423"},"id":0}